{
    "contractName": "FundManager",
    "abi": [
        {
            "stateMutability": "payable",
            "type": "fallback"
        },
        {
            "inputs": [
                {
                    "internalType": "address",
                    "name": "",
                    "type": "address"
                }
            ],
            "name": "delegations",
            "outputs": [
                {
                    "internalType": "address",
                    "name": "",
                    "type": "address"
                }
            ],
            "stateMutability": "view",
            "type": "function"
        },
        {
            "inputs": [
                {
                    "internalType": "address",
                    "name": "delegate",
                    "type": "address"
                }
            ],
            "name": "setDelegate",
            "outputs": [],
            "stateMutability": "nonpayable",
            "type": "function"
        }
    ],
    "bytecode": "608060405234801561001057600080fd5b50610186806100206000396000f3fe6080604052600436106100295760003560e01c8063bffe348614610084578063ca5eb5e1146100d6575b336000818152602081905260409020546001600160a01b031680156100825760405181906001600160a01b038216903480156108fc02916000818181858888f1935050505015801561007f573d6000803e3d6000fd5b50505b005b34801561009057600080fd5b506100ba61009f366004610120565b6000602081905290815260409020546001600160a01b031681565b6040516001600160a01b03909116815260200160405180910390f35b3480156100e257600080fd5b506100826100f1366004610120565b33600090815260208190526040902080546001600160a01b0319166001600160a01b0392909216919091179055565b60006020828403121561013257600080fd5b81356001600160a01b038116811461014957600080fd5b939250505056fea2646970667358221220a86d1ac9ffc1c946487b187d8c3fb2976785fc5084c91495665bdcdfdda78f7264736f6c63430008110033",
    "sourcePath": "c:/Users/User/Desktop/Repository GitHub/gestionaleLavanderia/front-end-angular/gestionale-lavanderia/src/solidity-smart-contract/contracts/delegation.sol",
    "compiler": {
        "name": "solc",
        "version": "0.8.17+commit.8df45f5f"
    },
    "functionHashes": {
        "delegations(address)": "bffe3486",
        "setDelegate(address)": "ca5eb5e1"
    },
    "gasEstimates": {
        "creation": {
            "codeDepositCost": "78000",
            "executionCost": "129",
            "totalCost": "78129"
        },
        "external": {
            "": "infinite",
            "delegations(address)": "2492",
            "setDelegate(address)": "24595"
        }
    }
}