{
    "contractName": "Sender",
    "abi": [
        {
            "anonymous": false,
            "inputs": [
                {
                    "indexed": false,
                    "internalType": "address",
                    "name": "receiver",
                    "type": "address"
                },
                {
                    "indexed": false,
                    "internalType": "uint256",
                    "name": "amount",
                    "type": "uint256"
                }
            ],
            "name": "EthSentToContract",
            "type": "event"
        },
        {
            "anonymous": false,
            "inputs": [
                {
                    "indexed": false,
                    "internalType": "address",
                    "name": "owner",
                    "type": "address"
                },
                {
                    "indexed": false,
                    "internalType": "uint256",
                    "name": "balance",
                    "type": "uint256"
                }
            ],
            "name": "OwnerBalance",
            "type": "event"
        },
        {
            "anonymous": false,
            "inputs": [
                {
                    "indexed": false,
                    "internalType": "address",
                    "name": "receiver",
                    "type": "address"
                },
                {
                    "indexed": false,
                    "internalType": "uint256",
                    "name": "balance",
                    "type": "uint256"
                }
            ],
            "name": "ReceiverBalance",
            "type": "event"
        },
        {
            "inputs": [
                {
                    "internalType": "address payable",
                    "name": "receiver",
                    "type": "address"
                }
            ],
            "name": "sendEther",
            "outputs": [],
            "stateMutability": "payable",
            "type": "function"
        }
    ],
    "bytecode": "608060405234801561001057600080fd5b506101e7806100206000396000f3fe60806040526004361061001e5760003560e01c806348c981e214610023575b600080fd5b61003661003136600461015a565b610038565b005b6040516001600160a01b038216903480156108fc02916000818181858888f1935050505015801561006d573d6000803e3d6000fd5b506001600160a01b0381166000908152602081905260408120805434929061009690849061018a565b9091555050604080516001600160a01b03831681523460208201527f08af492461b1434f815725c99768ab4597fefdcb54e751bda1aebdf0e9377a29910160405180910390a1604080516001600160a01b0383168082523160208201527f327e45b89fecc3bc260985fa0604008959cbf3134f209f08f6fe5ec8469ec192910160405180910390a160408051338082523160208201527f89282eff21db7b8684bc3ba6366668687e602608fa56510a22766556782512c8910160405180910390a150565b60006020828403121561016c57600080fd5b81356001600160a01b038116811461018357600080fd5b9392505050565b808201808211156101ab57634e487b7160e01b600052601160045260246000fd5b9291505056fea2646970667358221220486bb0d1ff4aedf4900b5b13414efca3ce33d8d004a836843f29d0864041ca9464736f6c63430008110033",
    "sourcePath": "c:/Users/User/Desktop/Repository GitHub/gestionaleLavanderia/front-end-angular/gestionale-lavanderia/src/solidity-smart-contract/contracts/Sender.sol",
    "compiler": {
        "name": "solc",
        "version": "0.8.17+commit.8df45f5f"
    },
    "functionHashes": {
        "sendEther(address)": "48c981e2"
    },
    "gasEstimates": {
        "creation": {
            "codeDepositCost": "97400",
            "executionCost": "147",
            "totalCost": "97547"
        },
        "external": {
            "sendEther(address)": "infinite"
        }
    }
}