{
  "contractName": "Sender",
  "abi": [
    {
      "anonymous": false,
      "inputs": [
        {
          "indexed": false,
          "internalType": "address",
          "name": "receiver",
          "type": "address"
        },
        {
          "indexed": false,
          "internalType": "uint256",
          "name": "amount",
          "type": "uint256"
        }
      ],
      "name": "LogDeposit",
      "type": "event"
    },
    {
      "inputs": [
        {
          "internalType": "address payable",
          "name": "receiver",
          "type": "address"
        }
      ],
      "name": "sendEther",
      "outputs": [],
      "stateMutability": "payable",
      "type": "function",
      "payable": true
    }
  ],
  "bytecode": "0x608060405234801561001057600080fd5b50610303806100206000396000f3fe60806040526004361061001e5760003560e01c806348c981e214610023575b600080fd5b61003d6004803603810190610038919061017a565b61003f565b005b8073ffffffffffffffffffffffffffffffffffffffff166108fc349081150290604051600060405180830381858888f19350505050158015610085573d6000803e3d6000fd5b50346000808373ffffffffffffffffffffffffffffffffffffffff1673ffffffffffffffffffffffffffffffffffffffff16815260200190815260200160002060008282546100d491906101e0565b925050819055507f1b851e1031ef35a238e6c67d0c7991162390df915f70eaf9098dbf0b175a6198813460405161010c9291906102a4565b60405180910390a150565b600080fd5b600073ffffffffffffffffffffffffffffffffffffffff82169050919050565b60006101478261011c565b9050919050565b6101578161013c565b811461016257600080fd5b50565b6000813590506101748161014e565b92915050565b6000602082840312156101905761018f610117565b5b600061019e84828501610165565b91505092915050565b6000819050919050565b7f4e487b7100000000000000000000000000000000000000000000000000000000600052601160045260246000fd5b60006101eb826101a7565b91506101f6836101a7565b9250827fffffffffffffffffffffffffffffffffffffffffffffffffffffffffffffffff0382111561022b5761022a6101b1565b5b828201905092915050565b6000819050919050565b600061025b6102566102518461011c565b610236565b61011c565b9050919050565b600061026d82610240565b9050919050565b600061027f82610262565b9050919050565b61028f81610274565b82525050565b61029e816101a7565b82525050565b60006040820190506102b96000830185610286565b6102c66020830184610295565b939250505056fea2646970667358221220ccd21b5d0c02ea7026a654cce21c7bc49153808f9720154aa699533f4486a10864736f6c634300080f0033",
  "immutableReferences": {},
  "source": "// SPDX-License-Identifier: MIT\r\npragma solidity >=0.4.22 <0.9.0;\r\n\r\ncontract Sender {\r\n    mapping (address => uint) balance; //Mappa che contiene gli indirizzi che hanno depositato soldi su questo contratto\r\n\r\n    event LogDeposit(address receiver, uint amount);\r\n\r\n    function sendEther(address payable receiver) payable public {\r\n        receiver.transfer(msg.value);\r\n        balance[receiver] += msg.value;\r\n        emit LogDeposit(receiver, msg.value);\r\n    }\r\n    \r\n\r\n}",
  "sourcePath": "C:\\Users\\User\\Desktop\\Repository GitHub\\gestionaleLavanderia\\front-end-angular\\gestionale-lavanderia\\src\\solidity-smart-contract\\contracts\\Sender.sol",
  "compiler": {
    "name": "solc",
    "version": "0.8.15+commit.e14f2714.Emscripten.clang"
  },
  "schemaVersion": "3.4.8",
  "updatedAt": "2022-08-09T14:18:08.949Z",
  "networkType": "ethereum",
  "devdoc": {
    "kind": "dev",
    "methods": {},
    "version": 1
  },
  "userdoc": {
    "kind": "user",
    "methods": {},
    "version": 1
  }
}