{
  "contractName": "Sender",
  "abi": [
    {
      "inputs": [],
      "name": "amount",
      "outputs": [
        {
          "internalType": "uint256",
          "name": "",
          "type": "uint256"
        }
      ],
      "stateMutability": "view",
      "type": "function",
      "constant": true
    },
    {
      "inputs": [
        {
          "internalType": "address payable",
          "name": "owner",
          "type": "address"
        }
      ],
      "name": "sendEther",
      "outputs": [],
      "stateMutability": "payable",
      "type": "function",
      "payable": true
    }
  ],
  "bytecode": "0x608060405234801561001057600080fd5b506101c1806100206000396000f3fe6080604052600436106100295760003560e01c806348c981e21461002e578063aa8c217c1461004a575b600080fd5b6100486004803603810190610043919061012a565b610075565b005b34801561005657600080fd5b5061005f6100c1565b60405161006c9190610170565b60405180910390f35b8073ffffffffffffffffffffffffffffffffffffffff166108fc6000549081150290604051600060405180830381858888f193505050501580156100bd573d6000803e3d6000fd5b5050565b60005481565b600080fd5b600073ffffffffffffffffffffffffffffffffffffffff82169050919050565b60006100f7826100cc565b9050919050565b610107816100ec565b811461011257600080fd5b50565b600081359050610124816100fe565b92915050565b6000602082840312156101405761013f6100c7565b5b600061014e84828501610115565b91505092915050565b6000819050919050565b61016a81610157565b82525050565b60006020820190506101856000830184610161565b9291505056fea264697066735822122024c3442a040d90b702ac9b44a8ba02bb5756df31c5f17824a8e220c84fd397cb64736f6c634300080f0033",
  "immutableReferences": {},
  "source": "// SPDX-License-Identifier: MIT\r\npragma solidity >=0.4.22 <0.9.0;\r\n\r\ncontract Sender {\r\n    uint public amount;\r\n    function sendEther(address payable owner) payable public {\r\n        owner.transfer(amount);\r\n    }\r\n}",
  "sourcePath": "C:\\Users\\User\\Desktop\\Repository GitHub\\gestionaleLavanderia\\front-end-angular\\gestionale-lavanderia\\src\\solidity-smart-contract\\contracts\\Sender.sol",
  "compiler": {
    "name": "solc",
    "version": "0.8.15+commit.e14f2714.Emscripten.clang"
  },
  "schemaVersion": "3.4.8",
  "updatedAt": "2022-08-07T11:11:09.435Z",
  "networkType": "ethereum",
  "devdoc": {
    "kind": "dev",
    "methods": {},
    "version": 1
  },
  "userdoc": {
    "kind": "user",
    "methods": {},
    "version": 1
  }
}